{
  "address": "0x77a568cdFB7B6f8B2c46f9eA24a3429530c15141",
  "abi": [
    {
      "inputs": [],
      "stateMutability": "nonpayable",
      "type": "constructor"
    },
    {
      "anonymous": false,
      "inputs": [
        {
          "indexed": true,
          "internalType": "address",
          "name": "owner",
          "type": "address"
        },
        {
          "indexed": true,
          "internalType": "address",
          "name": "approved",
          "type": "address"
        },
        {
          "indexed": true,
          "internalType": "uint256",
          "name": "tokenId",
          "type": "uint256"
        }
      ],
      "name": "Approval",
      "type": "event"
    },
    {
      "anonymous": false,
      "inputs": [
        {
          "indexed": true,
          "internalType": "address",
          "name": "owner",
          "type": "address"
        },
        {
          "indexed": true,
          "internalType": "address",
          "name": "operator",
          "type": "address"
        },
        {
          "indexed": false,
          "internalType": "bool",
          "name": "approved",
          "type": "bool"
        }
      ],
      "name": "ApprovalForAll",
      "type": "event"
    },
    {
      "anonymous": false,
      "inputs": [
        {
          "indexed": false,
          "internalType": "uint256",
          "name": "id",
          "type": "uint256"
        },
        {
          "indexed": false,
          "internalType": "uint256",
          "name": "token_id",
          "type": "uint256"
        },
        {
          "indexed": false,
          "internalType": "string",
          "name": "name",
          "type": "string"
        },
        {
          "indexed": false,
          "internalType": "string",
          "name": "genre",
          "type": "string"
        },
        {
          "indexed": false,
          "internalType": "string",
          "name": "identify",
          "type": "string"
        },
        {
          "indexed": false,
          "internalType": "string",
          "name": "network",
          "type": "string"
        },
        {
          "indexed": false,
          "internalType": "string",
          "name": "story",
          "type": "string"
        },
        {
          "indexed": false,
          "internalType": "address",
          "name": "creator",
          "type": "address"
        },
        {
          "indexed": false,
          "internalType": "uint256",
          "name": "amt",
          "type": "uint256"
        },
        {
          "indexed": false,
          "internalType": "bool",
          "name": "status",
          "type": "bool"
        }
      ],
      "name": "POVBought",
      "type": "event"
    },
    {
      "anonymous": false,
      "inputs": [
        {
          "indexed": false,
          "internalType": "uint256",
          "name": "id",
          "type": "uint256"
        },
        {
          "indexed": false,
          "internalType": "uint256",
          "name": "token_id",
          "type": "uint256"
        },
        {
          "indexed": false,
          "internalType": "string",
          "name": "name",
          "type": "string"
        },
        {
          "indexed": false,
          "internalType": "string",
          "name": "genre",
          "type": "string"
        },
        {
          "indexed": false,
          "internalType": "string",
          "name": "identify",
          "type": "string"
        },
        {
          "indexed": false,
          "internalType": "string",
          "name": "network",
          "type": "string"
        },
        {
          "indexed": false,
          "internalType": "string",
          "name": "story",
          "type": "string"
        },
        {
          "indexed": false,
          "internalType": "address",
          "name": "creator",
          "type": "address"
        },
        {
          "indexed": false,
          "internalType": "uint256",
          "name": "amt",
          "type": "uint256"
        },
        {
          "indexed": false,
          "internalType": "bool",
          "name": "status",
          "type": "bool"
        }
      ],
      "name": "POVCreated",
      "type": "event"
    },
    {
      "anonymous": false,
      "inputs": [
        {
          "indexed": true,
          "internalType": "address",
          "name": "from",
          "type": "address"
        },
        {
          "indexed": true,
          "internalType": "address",
          "name": "to",
          "type": "address"
        },
        {
          "indexed": true,
          "internalType": "uint256",
          "name": "tokenId",
          "type": "uint256"
        }
      ],
      "name": "Transfer",
      "type": "event"
    },
    {
      "anonymous": false,
      "inputs": [
        {
          "indexed": false,
          "internalType": "uint256",
          "name": "amt",
          "type": "uint256"
        },
        {
          "indexed": false,
          "internalType": "address",
          "name": "creator",
          "type": "address"
        }
      ],
      "name": "VoteReputation",
      "type": "event"
    },
    {
      "inputs": [
        {
          "internalType": "address",
          "name": "to",
          "type": "address"
        },
        {
          "internalType": "uint256",
          "name": "tokenId",
          "type": "uint256"
        }
      ],
      "name": "approve",
      "outputs": [],
      "stateMutability": "nonpayable",
      "type": "function"
    },
    {
      "inputs": [
        {
          "internalType": "address",
          "name": "owner",
          "type": "address"
        }
      ],
      "name": "balanceOf",
      "outputs": [
        {
          "internalType": "uint256",
          "name": "",
          "type": "uint256"
        }
      ],
      "stateMutability": "view",
      "type": "function"
    },
    {
      "inputs": [
        {
          "internalType": "uint256",
          "name": "tokenId",
          "type": "uint256"
        }
      ],
      "name": "getApproved",
      "outputs": [
        {
          "internalType": "address",
          "name": "",
          "type": "address"
        }
      ],
      "stateMutability": "view",
      "type": "function"
    },
    {
      "inputs": [
        {
          "internalType": "address",
          "name": "owner",
          "type": "address"
        },
        {
          "internalType": "address",
          "name": "operator",
          "type": "address"
        }
      ],
      "name": "isApprovedForAll",
      "outputs": [
        {
          "internalType": "bool",
          "name": "",
          "type": "bool"
        }
      ],
      "stateMutability": "view",
      "type": "function"
    },
    {
      "inputs": [
        {
          "internalType": "uint256",
          "name": "",
          "type": "uint256"
        }
      ],
      "name": "mapIdToPov",
      "outputs": [
        {
          "internalType": "uint256",
          "name": "token_id",
          "type": "uint256"
        },
        {
          "internalType": "string",
          "name": "identify",
          "type": "string"
        },
        {
          "internalType": "string",
          "name": "name",
          "type": "string"
        },
        {
          "internalType": "string",
          "name": "genre",
          "type": "string"
        },
        {
          "internalType": "string",
          "name": "network",
          "type": "string"
        },
        {
          "internalType": "string",
          "name": "story",
          "type": "string"
        },
        {
          "internalType": "address",
          "name": "creator",
          "type": "address"
        },
        {
          "internalType": "uint256",
          "name": "amt",
          "type": "uint256"
        },
        {
          "internalType": "bool",
          "name": "status",
          "type": "bool"
        }
      ],
      "stateMutability": "view",
      "type": "function"
    },
    {
      "inputs": [],
      "name": "name",
      "outputs": [
        {
          "internalType": "string",
          "name": "",
          "type": "string"
        }
      ],
      "stateMutability": "view",
      "type": "function"
    },
    {
      "inputs": [
        {
          "internalType": "uint256",
          "name": "tokenId",
          "type": "uint256"
        }
      ],
      "name": "ownerOf",
      "outputs": [
        {
          "internalType": "address",
          "name": "",
          "type": "address"
        }
      ],
      "stateMutability": "view",
      "type": "function"
    },
    {
      "inputs": [
        {
          "internalType": "address",
          "name": "to",
          "type": "address"
        },
        {
          "internalType": "string",
          "name": "identify",
          "type": "string"
        },
        {
          "internalType": "string",
          "name": "name",
          "type": "string"
        },
        {
          "internalType": "string",
          "name": "genre",
          "type": "string"
        },
        {
          "internalType": "string",
          "name": "network",
          "type": "string"
        },
        {
          "internalType": "string",
          "name": "story",
          "type": "string"
        },
        {
          "internalType": "uint256",
          "name": "amt",
          "type": "uint256"
        }
      ],
      "name": "safeMint",
      "outputs": [],
      "stateMutability": "nonpayable",
      "type": "function"
    },
    {
      "inputs": [
        {
          "internalType": "address",
          "name": "from",
          "type": "address"
        },
        {
          "internalType": "address",
          "name": "to",
          "type": "address"
        },
        {
          "internalType": "uint256",
          "name": "tokenId",
          "type": "uint256"
        }
      ],
      "name": "safeTransferFrom",
      "outputs": [],
      "stateMutability": "nonpayable",
      "type": "function"
    },
    {
      "inputs": [
        {
          "internalType": "address",
          "name": "from",
          "type": "address"
        },
        {
          "internalType": "address",
          "name": "to",
          "type": "address"
        },
        {
          "internalType": "uint256",
          "name": "tokenId",
          "type": "uint256"
        },
        {
          "internalType": "bytes",
          "name": "data",
          "type": "bytes"
        }
      ],
      "name": "safeTransferFrom",
      "outputs": [],
      "stateMutability": "nonpayable",
      "type": "function"
    },
    {
      "inputs": [
        {
          "internalType": "address",
          "name": "operator",
          "type": "address"
        },
        {
          "internalType": "bool",
          "name": "approved",
          "type": "bool"
        }
      ],
      "name": "setApprovalForAll",
      "outputs": [],
      "stateMutability": "nonpayable",
      "type": "function"
    },
    {
      "inputs": [
        {
          "internalType": "bytes4",
          "name": "interfaceId",
          "type": "bytes4"
        }
      ],
      "name": "supportsInterface",
      "outputs": [
        {
          "internalType": "bool",
          "name": "",
          "type": "bool"
        }
      ],
      "stateMutability": "view",
      "type": "function"
    },
    {
      "inputs": [],
      "name": "symbol",
      "outputs": [
        {
          "internalType": "string",
          "name": "",
          "type": "string"
        }
      ],
      "stateMutability": "view",
      "type": "function"
    },
    {
      "inputs": [
        {
          "internalType": "address",
          "name": "from",
          "type": "address"
        },
        {
          "internalType": "address",
          "name": "to",
          "type": "address"
        },
        {
          "internalType": "uint256",
          "name": "token_id",
          "type": "uint256"
        },
        {
          "internalType": "string",
          "name": "network",
          "type": "string"
        }
      ],
      "name": "toTransferFrom",
      "outputs": [
        {
          "components": [
            {
              "internalType": "uint256",
              "name": "token_id",
              "type": "uint256"
            },
            {
              "internalType": "string",
              "name": "identify",
              "type": "string"
            },
            {
              "internalType": "string",
              "name": "name",
              "type": "string"
            },
            {
              "internalType": "string",
              "name": "genre",
              "type": "string"
            },
            {
              "internalType": "string",
              "name": "network",
              "type": "string"
            },
            {
              "internalType": "string",
              "name": "story",
              "type": "string"
            },
            {
              "internalType": "address",
              "name": "creator",
              "type": "address"
            },
            {
              "internalType": "uint256",
              "name": "amt",
              "type": "uint256"
            },
            {
              "internalType": "bool",
              "name": "status",
              "type": "bool"
            }
          ],
          "internalType": "struct TaleTrade.POV",
          "name": "",
          "type": "tuple"
        }
      ],
      "stateMutability": "nonpayable",
      "type": "function"
    },
    {
      "inputs": [
        {
          "internalType": "uint256",
          "name": "tokenId",
          "type": "uint256"
        }
      ],
      "name": "tokenURI",
      "outputs": [
        {
          "internalType": "string",
          "name": "",
          "type": "string"
        }
      ],
      "stateMutability": "view",
      "type": "function"
    },
    {
      "inputs": [
        {
          "internalType": "address",
          "name": "from",
          "type": "address"
        },
        {
          "internalType": "address",
          "name": "to",
          "type": "address"
        },
        {
          "internalType": "uint256",
          "name": "tokenId",
          "type": "uint256"
        }
      ],
      "name": "transferFrom",
      "outputs": [],
      "stateMutability": "nonpayable",
      "type": "function"
    },
    {
      "inputs": [
        {
          "internalType": "string",
          "name": "identity",
          "type": "string"
        },
        {
          "internalType": "uint256",
          "name": "amt",
          "type": "uint256"
        }
      ],
      "name": "voteInfluencer",
      "outputs": [],
      "stateMutability": "nonpayable",
      "type": "function"
    }
  ],
  "transactionHash": "0x7b2052006e3dacdb7e90760ccf7ea06ca084436f5f4e062657a3500dd86aebd4",
  "args": [],
  "numDeployments": 6,
  "solcInputHash": "7c855f4fcd9e28669ac14c5ed080e9b7",
  "bytecode": "0x60806040523480156200001157600080fd5b50604051806040016040528060098152602001682a30b632aa37b5b2b760b91b8152506040518060400160405280600481526020016354414c4560e01b815250816000908162000062919062000124565b50600162000071828262000124565b5050600060085550620001f0565b634e487b7160e01b600052604160045260246000fd5b600181811c90821680620000aa57607f821691505b602082108103620000cb57634e487b7160e01b600052602260045260246000fd5b50919050565b601f8211156200011f57600081815260208120601f850160051c81016020861015620000fa5750805b601f850160051c820191505b818110156200011b5782815560010162000106565b5050505b505050565b81516001600160401b038111156200014057620001406200007f565b620001588162000151845462000095565b84620000d1565b602080601f831160018114620001905760008415620001775750858301515b600019600386901b1c1916600185901b1785556200011b565b600085815260208120601f198616915b82811015620001c157888601518255948401946001909101908401620001a0565b5085821015620001e05787850151600019600388901b60f8161c191681555b5050505050600190811b01905550565b6124f680620002006000396000f3fe608060405234801561001057600080fd5b506004361061010b5760003560e01c80636352211e116100a2578063a22cb46511610071578063a22cb4651461023d578063b88d4fde14610250578063c87b56dd14610263578063d7f9d50414610276578063e985e9c51461029657600080fd5b80636352211e146101d957806370a08231146101ec57806395d89b411461020d578063a12220761461021557600080fd5b806323b872dd116100de57806323b872dd1461018d57806342842e0e146101a0578063470a73e3146101b35780634ae58f2a146101c657600080fd5b806301ffc9a71461011057806306fdde0314610138578063081812fc1461014d578063095ea7b314610178575b600080fd5b61012361011e366004611b5d565b6102a9565b60405190151581526020015b60405180910390f35b6101406102ba565b60405161012f9190611bca565b61016061015b366004611bdd565b61034c565b6040516001600160a01b03909116815260200161012f565b61018b610186366004611c12565b610373565b005b61018b61019b366004611c3c565b61048d565b61018b6101ae366004611c3c565b6104be565b61018b6101c1366004611d24565b6104d9565b61018b6101d4366004611e10565b61069e565b6101606101e7366004611bdd565b610704565b6101ff6101fa366004611e55565b610764565b60405190815260200161012f565b6101406107ea565b610228610223366004611bdd565b6107f9565b60405161012f99989796959493929190611e70565b61018b61024b366004611f08565b610af7565b61018b61025e366004611f44565b610b06565b610140610271366004611bdd565b610b3e565b610289610284366004611fc0565b610bb2565b60405161012f919061201c565b6101236102a43660046120fb565b6112f5565b60006102b482611323565b92915050565b6060600080546102c99061212e565b80601f01602080910402602001604051908101604052809291908181526020018280546102f59061212e565b80156103425780601f1061031757610100808354040283529160200191610342565b820191906000526020600020905b81548152906001019060200180831161032557829003601f168201915b5050505050905090565b600061035782611373565b506000908152600460205260409020546001600160a01b031690565b600061037e82610704565b9050806001600160a01b0316836001600160a01b0316036103f05760405162461bcd60e51b815260206004820152602160248201527f4552433732313a20617070726f76616c20746f2063757272656e74206f776e656044820152603960f91b60648201526084015b60405180910390fd5b336001600160a01b038216148061040c575061040c81336112f5565b61047e5760405162461bcd60e51b815260206004820152603d60248201527f4552433732313a20617070726f76652063616c6c6572206973206e6f7420746f60448201527f6b656e206f776e6572206f7220617070726f76656420666f7220616c6c00000060648201526084016103e7565b61048883836113d5565b505050565b6104973382611443565b6104b35760405162461bcd60e51b81526004016103e790612168565b6104888383836114a1565b61048883838360405180602001604052806000815250610b06565b6104e587600854611605565b604080516101208101825260085480825260208083018a81528385018a9052606084018990526080840188905260a084018790523360c085015260e084018690526000610100850181905292835260069091529290208151815591519091829160018201906105549082612203565b50604082015160028201906105699082612203565b506060820151600382019061057e9082612203565b50608082015160048201906105939082612203565b5060a082015160058201906105a89082612203565b5060c08201516006820180546001600160a01b0319166001600160a01b0390921691909117905560e0820151600780830191909155610100909201516008909101805460ff1916911515919091179055604051339190610609908a906122c3565b90815260405190819003602001812080546001600160a01b03939093166001600160a01b0319909316929092179091556008547f544b09bbcbf8803940273fa62f4458517f553e9b86f59d57c45bb5f7570dafbb9161067b919081908a908a908d908b908b9033908c906000906122df565b60405180910390a160085461069190600161237f565b6008555050505050505050565b7f7a02d268a4561f9dff3579c2e6152b66b48918ce856f08527de7511bc90f4892816007846040516106d091906122c3565b9081526040805160209281900383018120549381526001600160a01b03909316918301919091520160405180910390a15050565b6000818152600260205260408120546001600160a01b0316806102b45760405162461bcd60e51b8152602060048201526018602482015277115490cdcc8c4e881a5b9d985b1a59081d1bdad95b88125160421b60448201526064016103e7565b60006001600160a01b0382166107ce5760405162461bcd60e51b815260206004820152602960248201527f4552433732313a2061646472657373207a65726f206973206e6f7420612076616044820152683634b21037bbb732b960b91b60648201526084016103e7565b506001600160a01b031660009081526003602052604090205490565b6060600180546102c99061212e565b6006602052600090815260409020805460018201805491929161081b9061212e565b80601f01602080910402602001604051908101604052809291908181526020018280546108479061212e565b80156108945780601f1061086957610100808354040283529160200191610894565b820191906000526020600020905b81548152906001019060200180831161087757829003601f168201915b5050505050908060020180546108a99061212e565b80601f01602080910402602001604051908101604052809291908181526020018280546108d59061212e565b80156109225780601f106108f757610100808354040283529160200191610922565b820191906000526020600020905b81548152906001019060200180831161090557829003601f168201915b5050505050908060030180546109379061212e565b80601f01602080910402602001604051908101604052809291908181526020018280546109639061212e565b80156109b05780601f10610985576101008083540402835291602001916109b0565b820191906000526020600020905b81548152906001019060200180831161099357829003601f168201915b5050505050908060040180546109c59061212e565b80601f01602080910402602001604051908101604052809291908181526020018280546109f19061212e565b8015610a3e5780601f10610a1357610100808354040283529160200191610a3e565b820191906000526020600020905b815481529060010190602001808311610a2157829003601f168201915b505050505090806005018054610a539061212e565b80601f0160208091040260200160405190810160405280929190818152602001828054610a7f9061212e565b8015610acc5780601f10610aa157610100808354040283529160200191610acc565b820191906000526020600020905b815481529060010190602001808311610aaf57829003601f168201915b505050506006830154600784015460089094015492936001600160a01b039091169290915060ff1689565b610b0233838361161f565b5050565b610b103383611443565b610b2c5760405162461bcd60e51b81526004016103e790612168565b610b38848484846116ed565b50505050565b6060610b4982611373565b6000610b6060408051602081019091526000815290565b90506000815111610b805760405180602001604052806000815250610bab565b80610b8a84611720565b604051602001610b9b9291906123a0565b6040516020818303038152906040525b9392505050565b610c0c60405180610120016040528060008152602001606081526020016060815260200160608152602001606081526020016060815260200160006001600160a01b03168152602001600081526020016000151581525090565b610c178585856104be565b6000600660008581526020019081526020016000206040518061012001604052908160008201548152602001600182018054610c529061212e565b80601f0160208091040260200160405190810160405280929190818152602001828054610c7e9061212e565b8015610ccb5780601f10610ca057610100808354040283529160200191610ccb565b820191906000526020600020905b815481529060010190602001808311610cae57829003601f168201915b50505050508152602001600282018054610ce49061212e565b80601f0160208091040260200160405190810160405280929190818152602001828054610d109061212e565b8015610d5d5780601f10610d3257610100808354040283529160200191610d5d565b820191906000526020600020905b815481529060010190602001808311610d4057829003601f168201915b50505050508152602001600382018054610d769061212e565b80601f0160208091040260200160405190810160405280929190818152602001828054610da29061212e565b8015610def5780601f10610dc457610100808354040283529160200191610def565b820191906000526020600020905b815481529060010190602001808311610dd257829003601f168201915b50505050508152602001600482018054610e089061212e565b80601f0160208091040260200160405190810160405280929190818152602001828054610e349061212e565b8015610e815780601f10610e5657610100808354040283529160200191610e81565b820191906000526020600020905b815481529060010190602001808311610e6457829003601f168201915b50505050508152602001600582018054610e9a9061212e565b80601f0160208091040260200160405190810160405280929190818152602001828054610ec69061212e565b8015610f135780601f10610ee857610100808354040283529160200191610f13565b820191906000526020600020905b815481529060010190602001808311610ef657829003601f168201915b505050918352505060068201546001600160a01b0316602080830191909152600783015460408084019190915260089093015460ff161515606092830152835184840151928501519185015160a086015160c087015160e088015196519798507f544b09bbcbf8803940273fa62f4458517f553e9b86f59d57c45bb5f7570dafbb97610fb19794968d9690959094938d9390929091906001906122df565b60405180910390a1600660008581526020019081526020016000206040518061012001604052908160008201548152602001600182018054610ff29061212e565b80601f016020809104026020016040519081016040528092919081815260200182805461101e9061212e565b801561106b5780601f106110405761010080835404028352916020019161106b565b820191906000526020600020905b81548152906001019060200180831161104e57829003601f168201915b505050505081526020016002820180546110849061212e565b80601f01602080910402602001604051908101604052809291908181526020018280546110b09061212e565b80156110fd5780601f106110d2576101008083540402835291602001916110fd565b820191906000526020600020905b8154815290600101906020018083116110e057829003601f168201915b505050505081526020016003820180546111169061212e565b80601f01602080910402602001604051908101604052809291908181526020018280546111429061212e565b801561118f5780601f106111645761010080835404028352916020019161118f565b820191906000526020600020905b81548152906001019060200180831161117257829003601f168201915b505050505081526020016004820180546111a89061212e565b80601f01602080910402602001604051908101604052809291908181526020018280546111d49061212e565b80156112215780601f106111f657610100808354040283529160200191611221565b820191906000526020600020905b81548152906001019060200180831161120457829003601f168201915b5050505050815260200160058201805461123a9061212e565b80601f01602080910402602001604051908101604052809291908181526020018280546112669061212e565b80156112b35780601f10611288576101008083540402835291602001916112b3565b820191906000526020600020905b81548152906001019060200180831161129657829003601f168201915b505050918352505060068201546001600160a01b031660208201526007820154604082015260089091015460ff1615156060909101529150505b949350505050565b6001600160a01b03918216600090815260056020908152604080832093909416825291909152205460ff1690565b60006001600160e01b031982166380ac58cd60e01b148061135457506001600160e01b03198216635b5e139f60e01b145b806102b457506301ffc9a760e01b6001600160e01b03198316146102b4565b6000818152600260205260409020546001600160a01b03166113d25760405162461bcd60e51b8152602060048201526018602482015277115490cdcc8c4e881a5b9d985b1a59081d1bdad95b88125160421b60448201526064016103e7565b50565b600081815260046020526040902080546001600160a01b0319166001600160a01b038416908117909155819061140a82610704565b6001600160a01b03167f8c5be1e5ebec7d5bd14f71427d1e84f3dd0314c0f7b2291e5b200ac8c7c3b92560405160405180910390a45050565b60008061144f83610704565b9050806001600160a01b0316846001600160a01b03161480611476575061147681856112f5565b806112ed5750836001600160a01b031661148f8461034c565b6001600160a01b031614949350505050565b826001600160a01b03166114b482610704565b6001600160a01b0316146114da5760405162461bcd60e51b81526004016103e7906123cf565b6001600160a01b03821661153c5760405162461bcd60e51b8152602060048201526024808201527f4552433732313a207472616e7366657220746f20746865207a65726f206164646044820152637265737360e01b60648201526084016103e7565b826001600160a01b031661154f82610704565b6001600160a01b0316146115755760405162461bcd60e51b81526004016103e7906123cf565b600081815260046020908152604080832080546001600160a01b03199081169091556001600160a01b0387811680865260038552838620805460001901905590871680865283862080546001019055868652600290945282852080549092168417909155905184937fddf252ad1be2c89b69c2b068fc378daa952ba7f163c4a11628f55a4df523b3ef91a4505050565b610b028282604051806020016040528060008152506117b3565b816001600160a01b0316836001600160a01b0316036116805760405162461bcd60e51b815260206004820152601960248201527f4552433732313a20617070726f766520746f2063616c6c65720000000000000060448201526064016103e7565b6001600160a01b03838116600081815260056020908152604080832094871680845294825291829020805460ff191686151590811790915591519182527f17307eab39ab6107e8899845ad3d59bd9653f200f220920489ca2b5937696c31910160405180910390a3505050565b6116f88484846114a1565b611704848484846117e6565b610b385760405162461bcd60e51b81526004016103e790612414565b6060600061172d836118e4565b600101905060008167ffffffffffffffff81111561174d5761174d611c78565b6040519080825280601f01601f191660200182016040528015611777576020820181803683370190505b5090508181016020015b600019016f181899199a1a9b1b9c1cb0b131b232b360811b600a86061a8153600a850494508461178157509392505050565b6117bd83836119bc565b6117ca60008484846117e6565b6104885760405162461bcd60e51b81526004016103e790612414565b60006001600160a01b0384163b156118dc57604051630a85bd0160e11b81526001600160a01b0385169063150b7a029061182a903390899088908890600401612466565b6020604051808303816000875af1925050508015611865575060408051601f3d908101601f19168201909252611862918101906124a3565b60015b6118c2573d808015611893576040519150601f19603f3d011682016040523d82523d6000602084013e611898565b606091505b5080516000036118ba5760405162461bcd60e51b81526004016103e790612414565b805181602001fd5b6001600160e01b031916630a85bd0160e11b1490506112ed565b5060016112ed565b60008072184f03e93ff9f4daa797ed6e38ed64bf6a1f0160401b83106119235772184f03e93ff9f4daa797ed6e38ed64bf6a1f0160401b830492506040015b6d04ee2d6d415b85acef8100000000831061194f576d04ee2d6d415b85acef8100000000830492506020015b662386f26fc10000831061196d57662386f26fc10000830492506010015b6305f5e1008310611985576305f5e100830492506008015b612710831061199957612710830492506004015b606483106119ab576064830492506002015b600a83106102b45760010192915050565b6001600160a01b038216611a125760405162461bcd60e51b815260206004820181905260248201527f4552433732313a206d696e7420746f20746865207a65726f206164647265737360448201526064016103e7565b6000818152600260205260409020546001600160a01b031615611a775760405162461bcd60e51b815260206004820152601c60248201527f4552433732313a20746f6b656e20616c7265616479206d696e7465640000000060448201526064016103e7565b6000818152600260205260409020546001600160a01b031615611adc5760405162461bcd60e51b815260206004820152601c60248201527f4552433732313a20746f6b656e20616c7265616479206d696e7465640000000060448201526064016103e7565b6001600160a01b038216600081815260036020908152604080832080546001019055848352600290915280822080546001600160a01b0319168417905551839291907fddf252ad1be2c89b69c2b068fc378daa952ba7f163c4a11628f55a4df523b3ef908290a45050565b6001600160e01b0319811681146113d257600080fd5b600060208284031215611b6f57600080fd5b8135610bab81611b47565b60005b83811015611b95578181015183820152602001611b7d565b50506000910152565b60008151808452611bb6816020860160208601611b7a565b601f01601f19169290920160200192915050565b602081526000610bab6020830184611b9e565b600060208284031215611bef57600080fd5b5035919050565b80356001600160a01b0381168114611c0d57600080fd5b919050565b60008060408385031215611c2557600080fd5b611c2e83611bf6565b946020939093013593505050565b600080600060608486031215611c5157600080fd5b611c5a84611bf6565b9250611c6860208501611bf6565b9150604084013590509250925092565b634e487b7160e01b600052604160045260246000fd5b600067ffffffffffffffff80841115611ca957611ca9611c78565b604051601f8501601f19908116603f01168101908282118183101715611cd157611cd1611c78565b81604052809350858152868686011115611cea57600080fd5b858560208301376000602087830101525050509392505050565b600082601f830112611d1557600080fd5b610bab83833560208501611c8e565b600080600080600080600060e0888a031215611d3f57600080fd5b611d4888611bf6565b9650602088013567ffffffffffffffff80821115611d6557600080fd5b611d718b838c01611d04565b975060408a0135915080821115611d8757600080fd5b611d938b838c01611d04565b965060608a0135915080821115611da957600080fd5b611db58b838c01611d04565b955060808a0135915080821115611dcb57600080fd5b611dd78b838c01611d04565b945060a08a0135915080821115611ded57600080fd5b50611dfa8a828b01611d04565b92505060c0880135905092959891949750929550565b60008060408385031215611e2357600080fd5b823567ffffffffffffffff811115611e3a57600080fd5b611e4685828601611d04565b95602094909401359450505050565b600060208284031215611e6757600080fd5b610bab82611bf6565b60006101208b8352806020840152611e8a8184018c611b9e565b90508281036040840152611e9e818b611b9e565b90508281036060840152611eb2818a611b9e565b90508281036080840152611ec68189611b9e565b905082810360a0840152611eda8188611b9e565b6001600160a01b039690961660c0840152505060e08101929092521515610100909101529695505050505050565b60008060408385031215611f1b57600080fd5b611f2483611bf6565b915060208301358015158114611f3957600080fd5b809150509250929050565b60008060008060808587031215611f5a57600080fd5b611f6385611bf6565b9350611f7160208601611bf6565b925060408501359150606085013567ffffffffffffffff811115611f9457600080fd5b8501601f81018713611fa557600080fd5b611fb487823560208401611c8e565b91505092959194509250565b60008060008060808587031215611fd657600080fd5b611fdf85611bf6565b9350611fed60208601611bf6565b925060408501359150606085013567ffffffffffffffff81111561201057600080fd5b611fb487828801611d04565b602081528151602082015260006020830151610120806040850152612045610140850183611b9e565b91506040850151601f19808685030160608701526120638483611b9e565b935060608701519150808685030160808701526120808483611b9e565b935060808701519150808685030160a087015261209d8483611b9e565b935060a08701519150808685030160c0870152506120bb8382611b9e565b92505060c08501516120d860e08601826001600160a01b03169052565b5060e0850151610100858101919091529094015115159390920192909252919050565b6000806040838503121561210e57600080fd5b61211783611bf6565b915061212560208401611bf6565b90509250929050565b600181811c9082168061214257607f821691505b60208210810361216257634e487b7160e01b600052602260045260246000fd5b50919050565b6020808252602d908201527f4552433732313a2063616c6c6572206973206e6f7420746f6b656e206f776e6560408201526c1c881bdc88185c1c1c9bdd9959609a1b606082015260800190565b601f82111561048857600081815260208120601f850160051c810160208610156121dc5750805b601f850160051c820191505b818110156121fb578281556001016121e8565b505050505050565b815167ffffffffffffffff81111561221d5761221d611c78565b6122318161222b845461212e565b846121b5565b602080601f831160018114612266576000841561224e5750858301515b600019600386901b1c1916600185901b1785556121fb565b600085815260208120601f198616915b8281101561229557888601518255948401946001909101908401612276565b50858210156122b35787850151600019600388901b60f8161c191681555b5050505050600190811b01905550565b600082516122d5818460208701611b7a565b9190910192915050565b60006101408c83528b60208401528060408401526122ff8184018c611b9e565b90508281036060840152612313818b611b9e565b90508281036080840152612327818a611b9e565b905082810360a084015261233b8189611b9e565b905082810360c084015261234f8188611b9e565b6001600160a01b039690961660e08401525050610100810192909252151561012090910152979650505050505050565b808201808211156102b457634e487b7160e01b600052601160045260246000fd5b600083516123b2818460208801611b7a565b8351908301906123c6818360208801611b7a565b01949350505050565b60208082526025908201527f4552433732313a207472616e736665722066726f6d20696e636f72726563742060408201526437bbb732b960d91b606082015260800190565b60208082526032908201527f4552433732313a207472616e7366657220746f206e6f6e20455243373231526560408201527131b2b4bb32b91034b6b83632b6b2b73a32b960711b606082015260800190565b6001600160a01b038581168252841660208201526040810183905260806060820181905260009061249990830184611b9e565b9695505050505050565b6000602082840312156124b557600080fd5b8151610bab81611b4756fea26469706673582212205c472d6ff756092103b320ff34c0549666be92df9b6fdae6ab5fcc8fd14c573264736f6c63430008140033",
  "devdoc": {
    "events": {
      "Approval(address,address,uint256)": {
        "details": "Emitted when `owner` enables `approved` to manage the `tokenId` token."
      },
      "ApprovalForAll(address,address,bool)": {
        "details": "Emitted when `owner` enables or disables (`approved`) `operator` to manage all of its assets."
      },
      "Transfer(address,address,uint256)": {
        "details": "Emitted when `tokenId` token is transferred from `from` to `to`."
      }
    },
    "kind": "dev",
    "methods": {
      "approve(address,uint256)": {
        "details": "See {IERC721-approve}."
      },
      "balanceOf(address)": {
        "details": "See {IERC721-balanceOf}."
      },
      "getApproved(uint256)": {
        "details": "See {IERC721-getApproved}."
      },
      "isApprovedForAll(address,address)": {
        "details": "See {IERC721-isApprovedForAll}."
      },
      "name()": {
        "details": "See {IERC721Metadata-name}."
      },
      "ownerOf(uint256)": {
        "details": "See {IERC721-ownerOf}."
      },
      "safeTransferFrom(address,address,uint256)": {
        "details": "See {IERC721-safeTransferFrom}."
      },
      "safeTransferFrom(address,address,uint256,bytes)": {
        "details": "See {IERC721-safeTransferFrom}."
      },
      "setApprovalForAll(address,bool)": {
        "details": "See {IERC721-setApprovalForAll}."
      },
      "supportsInterface(bytes4)": {
        "details": "See {IERC165-supportsInterface}."
      },
      "symbol()": {
        "details": "See {IERC721Metadata-symbol}."
      },
      "tokenURI(uint256)": {
        "details": "See {IERC721Metadata-tokenURI}."
      },
      "transferFrom(address,address,uint256)": {
        "details": "See {IERC721-transferFrom}."
      }
    },
    "version": 1
  },
  "userdoc": {
    "kind": "user",
    "methods": {},
    "version": 1
  },
  "storageLayout": {
    "storage": [
      {
        "astId": 138,
        "contract": "contracts/TaleTrade.sol:TaleTrade",
        "label": "_name",
        "offset": 0,
        "slot": "0",
        "type": "t_string_storage"
      },
      {
        "astId": 140,
        "contract": "contracts/TaleTrade.sol:TaleTrade",
        "label": "_symbol",
        "offset": 0,
        "slot": "1",
        "type": "t_string_storage"
      },
      {
        "astId": 144,
        "contract": "contracts/TaleTrade.sol:TaleTrade",
        "label": "_owners",
        "offset": 0,
        "slot": "2",
        "type": "t_mapping(t_uint256,t_address)"
      },
      {
        "astId": 148,
        "contract": "contracts/TaleTrade.sol:TaleTrade",
        "label": "_balances",
        "offset": 0,
        "slot": "3",
        "type": "t_mapping(t_address,t_uint256)"
      },
      {
        "astId": 152,
        "contract": "contracts/TaleTrade.sol:TaleTrade",
        "label": "_tokenApprovals",
        "offset": 0,
        "slot": "4",
        "type": "t_mapping(t_uint256,t_address)"
      },
      {
        "astId": 158,
        "contract": "contracts/TaleTrade.sol:TaleTrade",
        "label": "_operatorApprovals",
        "offset": 0,
        "slot": "5",
        "type": "t_mapping(t_address,t_mapping(t_address,t_bool))"
      },
      {
        "astId": 2658,
        "contract": "contracts/TaleTrade.sol:TaleTrade",
        "label": "mapIdToPov",
        "offset": 0,
        "slot": "6",
        "type": "t_mapping(t_uint256,t_struct(POV)2653_storage)"
      },
      {
        "astId": 2662,
        "contract": "contracts/TaleTrade.sol:TaleTrade",
        "label": "mapIdentityToCreator",
        "offset": 0,
        "slot": "7",
        "type": "t_mapping(t_string_memory_ptr,t_address)"
      },
      {
        "astId": 2664,
        "contract": "contracts/TaleTrade.sol:TaleTrade",
        "label": "tokenId",
        "offset": 0,
        "slot": "8",
        "type": "t_uint256"
      }
    ],
    "types": {
      "t_address": {
        "encoding": "inplace",
        "label": "address",
        "numberOfBytes": "20"
      },
      "t_bool": {
        "encoding": "inplace",
        "label": "bool",
        "numberOfBytes": "1"
      },
      "t_mapping(t_address,t_bool)": {
        "encoding": "mapping",
        "key": "t_address",
        "label": "mapping(address => bool)",
        "numberOfBytes": "32",
        "value": "t_bool"
      },
      "t_mapping(t_address,t_mapping(t_address,t_bool))": {
        "encoding": "mapping",
        "key": "t_address",
        "label": "mapping(address => mapping(address => bool))",
        "numberOfBytes": "32",
        "value": "t_mapping(t_address,t_bool)"
      },
      "t_mapping(t_address,t_uint256)": {
        "encoding": "mapping",
        "key": "t_address",
        "label": "mapping(address => uint256)",
        "numberOfBytes": "32",
        "value": "t_uint256"
      },
      "t_mapping(t_string_memory_ptr,t_address)": {
        "encoding": "mapping",
        "key": "t_string_memory_ptr",
        "label": "mapping(string => address)",
        "numberOfBytes": "32",
        "value": "t_address"
      },
      "t_mapping(t_uint256,t_address)": {
        "encoding": "mapping",
        "key": "t_uint256",
        "label": "mapping(uint256 => address)",
        "numberOfBytes": "32",
        "value": "t_address"
      },
      "t_mapping(t_uint256,t_struct(POV)2653_storage)": {
        "encoding": "mapping",
        "key": "t_uint256",
        "label": "mapping(uint256 => struct TaleTrade.POV)",
        "numberOfBytes": "32",
        "value": "t_struct(POV)2653_storage"
      },
      "t_string_memory_ptr": {
        "encoding": "bytes",
        "label": "string",
        "numberOfBytes": "32"
      },
      "t_string_storage": {
        "encoding": "bytes",
        "label": "string",
        "numberOfBytes": "32"
      },
      "t_struct(POV)2653_storage": {
        "encoding": "inplace",
        "label": "struct TaleTrade.POV",
        "members": [
          {
            "astId": 2636,
            "contract": "contracts/TaleTrade.sol:TaleTrade",
            "label": "token_id",
            "offset": 0,
            "slot": "0",
            "type": "t_uint256"
          },
          {
            "astId": 2638,
            "contract": "contracts/TaleTrade.sol:TaleTrade",
            "label": "identify",
            "offset": 0,
            "slot": "1",
            "type": "t_string_storage"
          },
          {
            "astId": 2640,
            "contract": "contracts/TaleTrade.sol:TaleTrade",
            "label": "name",
            "offset": 0,
            "slot": "2",
            "type": "t_string_storage"
          },
          {
            "astId": 2642,
            "contract": "contracts/TaleTrade.sol:TaleTrade",
            "label": "genre",
            "offset": 0,
            "slot": "3",
            "type": "t_string_storage"
          },
          {
            "astId": 2644,
            "contract": "contracts/TaleTrade.sol:TaleTrade",
            "label": "network",
            "offset": 0,
            "slot": "4",
            "type": "t_string_storage"
          },
          {
            "astId": 2646,
            "contract": "contracts/TaleTrade.sol:TaleTrade",
            "label": "story",
            "offset": 0,
            "slot": "5",
            "type": "t_string_storage"
          },
          {
            "astId": 2648,
            "contract": "contracts/TaleTrade.sol:TaleTrade",
            "label": "creator",
            "offset": 0,
            "slot": "6",
            "type": "t_address"
          },
          {
            "astId": 2650,
            "contract": "contracts/TaleTrade.sol:TaleTrade",
            "label": "amt",
            "offset": 0,
            "slot": "7",
            "type": "t_uint256"
          },
          {
            "astId": 2652,
            "contract": "contracts/TaleTrade.sol:TaleTrade",
            "label": "status",
            "offset": 0,
            "slot": "8",
            "type": "t_bool"
          }
        ],
        "numberOfBytes": "288"
      },
      "t_uint256": {
        "encoding": "inplace",
        "label": "uint256",
        "numberOfBytes": "32"
      }
    }
  }
}