{
  "address": "0x9fe077323e27C7572B8735b1894F311AF4261A8a",
  "abi": [
    {
      "inputs": [
        {
          "internalType": "address",
          "name": "_router",
          "type": "address"
        },
        {
          "internalType": "address",
          "name": "_link",
          "type": "address"
        }
      ],
      "stateMutability": "nonpayable",
      "type": "constructor"
    },
    {
      "inputs": [
        {
          "internalType": "uint64",
          "name": "destinationChainSelector",
          "type": "uint64"
        }
      ],
      "name": "DestinationChainNotAllowlisted",
      "type": "error"
    },
    {
      "inputs": [
        {
          "internalType": "address",
          "name": "owner",
          "type": "address"
        },
        {
          "internalType": "address",
          "name": "target",
          "type": "address"
        },
        {
          "internalType": "uint256",
          "name": "value",
          "type": "uint256"
        }
      ],
      "name": "FailedToWithdrawEth",
      "type": "error"
    },
    {
      "inputs": [],
      "name": "InvalidReceiverAddress",
      "type": "error"
    },
    {
      "inputs": [
        {
          "internalType": "uint256",
          "name": "currentBalance",
          "type": "uint256"
        },
        {
          "internalType": "uint256",
          "name": "calculatedFees",
          "type": "uint256"
        }
      ],
      "name": "NotEnoughBalance",
      "type": "error"
    },
    {
      "inputs": [],
      "name": "NothingToWithdraw",
      "type": "error"
    },
    {
      "anonymous": false,
      "inputs": [
        {
          "indexed": true,
          "internalType": "bytes32",
          "name": "messageId",
          "type": "bytes32"
        },
        {
          "indexed": true,
          "internalType": "uint64",
          "name": "destinationChainSelector",
          "type": "uint64"
        },
        {
          "indexed": false,
          "internalType": "address",
          "name": "receiver",
          "type": "address"
        },
        {
          "indexed": false,
          "internalType": "address",
          "name": "token",
          "type": "address"
        },
        {
          "indexed": false,
          "internalType": "uint256",
          "name": "tokenAmount",
          "type": "uint256"
        },
        {
          "indexed": false,
          "internalType": "address",
          "name": "feeToken",
          "type": "address"
        },
        {
          "indexed": false,
          "internalType": "uint256",
          "name": "fees",
          "type": "uint256"
        }
      ],
      "name": "TokensTransferred",
      "type": "event"
    },
    {
      "inputs": [
        {
          "internalType": "uint64",
          "name": "_destinationChainSelector",
          "type": "uint64"
        },
        {
          "internalType": "bool",
          "name": "allowed",
          "type": "bool"
        }
      ],
      "name": "allowlistDestinationChain",
      "outputs": [],
      "stateMutability": "nonpayable",
      "type": "function"
    },
    {
      "inputs": [
        {
          "internalType": "uint64",
          "name": "",
          "type": "uint64"
        }
      ],
      "name": "allowlistedChains",
      "outputs": [
        {
          "internalType": "bool",
          "name": "",
          "type": "bool"
        }
      ],
      "stateMutability": "view",
      "type": "function"
    },
    {
      "inputs": [
        {
          "internalType": "uint64",
          "name": "_destinationChainSelector",
          "type": "uint64"
        },
        {
          "internalType": "address",
          "name": "_receiver",
          "type": "address"
        },
        {
          "internalType": "address",
          "name": "_token",
          "type": "address"
        },
        {
          "internalType": "uint256",
          "name": "_amount",
          "type": "uint256"
        }
      ],
      "name": "transferTokensPayLINK",
      "outputs": [
        {
          "internalType": "bytes32",
          "name": "messageId",
          "type": "bytes32"
        }
      ],
      "stateMutability": "nonpayable",
      "type": "function"
    },
    {
      "inputs": [
        {
          "internalType": "uint64",
          "name": "_destinationChainSelector",
          "type": "uint64"
        },
        {
          "internalType": "address",
          "name": "_receiver",
          "type": "address"
        },
        {
          "internalType": "address",
          "name": "_token",
          "type": "address"
        },
        {
          "internalType": "uint256",
          "name": "_amount",
          "type": "uint256"
        }
      ],
      "name": "transferTokensPayNative",
      "outputs": [
        {
          "internalType": "bytes32",
          "name": "messageId",
          "type": "bytes32"
        }
      ],
      "stateMutability": "nonpayable",
      "type": "function"
    },
    {
      "inputs": [
        {
          "internalType": "address",
          "name": "_beneficiary",
          "type": "address"
        }
      ],
      "name": "withdraw",
      "outputs": [],
      "stateMutability": "nonpayable",
      "type": "function"
    },
    {
      "inputs": [
        {
          "internalType": "address",
          "name": "_beneficiary",
          "type": "address"
        },
        {
          "internalType": "address",
          "name": "_token",
          "type": "address"
        }
      ],
      "name": "withdrawToken",
      "outputs": [],
      "stateMutability": "nonpayable",
      "type": "function"
    },
    {
      "stateMutability": "payable",
      "type": "receive"
    }
  ],
  "transactionHash": "0xdb2e5b29470412695be2eb180140746e19ed81c38e39d1680f19aef32ec8db64",
  "args": [
    "0x9C32fCB86BF0f4a1A8921a9Fe46de3198bb884B2",
    "0x0Fd9e8d3aF1aaee056EB9e802c3A762a667b1904"
  ],
  "numDeployments": 3,
  "solcInputHash": "40f352c1955bcf1af2ed4e572530a6db",
  "bytecode": "0x608060405234801561001057600080fd5b506040516110cc3803806110cc83398101604081905261002f9161007c565b600180546001600160a01b039384166001600160a01b031991821617909155600280549290931691161790556100af565b80516001600160a01b038116811461007757600080fd5b919050565b6000806040838503121561008f57600080fd5b61009883610060565b91506100a660208401610060565b90509250929050565b61100e806100be6000396000f3fe6080604052600436106100595760003560e01c80630bb106eb146100655780633aeac4e1146100aa57806351419b4b146100cc57806351cff8d9146100fa57806395e1402c1461011a57806396d3b83d1461013a57600080fd5b3661006057005b600080fd5b34801561007157600080fd5b50610095610080366004610d19565b60006020819052908152604090205460ff1681565b60405190151581526020015b60405180910390f35b3480156100b657600080fd5b506100ca6100c5366004610d52565b610181565b005b3480156100d857600080fd5b506100ec6100e7366004610d85565b610228565b6040519081526020016100a1565b34801561010657600080fd5b506100ca610115366004610dd0565b6104b7565b34801561012657600080fd5b506100ec610135366004610d85565b610566565b34801561014657600080fd5b506100ca610155366004610dfc565b67ffffffffffffffff919091166000908152602081905260409020805460ff1916911515919091179055565b6040516370a0823160e01b81523060048201526000906001600160a01b038316906370a0823190602401602060405180830381865afa1580156101c8573d6000803e3d6000fd5b505050506040513d601f19601f820116820180604052508101906101ec9190610e33565b90508060000361020f57604051630686827b60e51b815260040160405180910390fd5b6102236001600160a01b0383168483610943565b505050565b67ffffffffffffffff8416600090815260208190526040812054859060ff1661027557604051630a503cdb60e01b815267ffffffffffffffff821660048201526024015b60405180910390fd5b846001600160a01b03811661029d5760405163502ffa3f60e11b815260040160405180910390fd5b60006102ac8787876000610995565b6001546040516320487ded60e01b81529192506000916001600160a01b03909116906320487ded906102e4908c908690600401610e9c565b602060405180830381865afa158015610301573d6000803e3d6000fd5b505050506040513d601f19601f820116820180604052508101906103259190610e33565b90504781111561035157604051634787a10360e11b81524760048201526024810182905260440161026c565b60015460405163095ea7b360e01b81526001600160a01b039182166004820152602481018890529088169063095ea7b3906044016020604051808303816000875af11580156103a4573d6000803e3d6000fd5b505050506040513d601f19601f820116820180604052508101906103c89190610f76565b506001546040516396f4e9f960e01b81526001600160a01b03909116906396f4e9f99083906103fd908d908790600401610e9c565b60206040518083038185885af115801561041b573d6000803e3d6000fd5b50505050506040513d601f19601f820116820180604052508101906104409190610e33565b604080516001600160a01b03808c1682528a166020820152908101889052600060608201526080810183905290955067ffffffffffffffff8a169086907fc15fb748c32ba4eb29c1c311e78533f93b4425eab49ea87c6fe4279ecadca0439060a0015b60405180910390a350505050949350505050565b4760008190036104da57604051630686827b60e51b815260040160405180910390fd5b6000826001600160a01b03168260405160006040518083038185875af1925050503d8060008114610527576040519150601f19603f3d011682016040523d82523d6000602084013e61052c565b606091505b505090508061022357604051639d11f56360e01b81523360048201526001600160a01b03841660248201526044810183905260640161026c565b67ffffffffffffffff8416600090815260208190526040812054859060ff166105ae57604051630a503cdb60e01b815267ffffffffffffffff8216600482015260240161026c565b846001600160a01b0381166105d65760405163502ffa3f60e11b815260040160405180910390fd5b6002546000906105f4908890889088906001600160a01b0316610995565b6001546040516320487ded60e01b81529192506000916001600160a01b03909116906320487ded9061062c908c908690600401610e9c565b602060405180830381865afa158015610649573d6000803e3d6000fd5b505050506040513d601f19601f8201168201806040525081019061066d9190610e33565b6002546040516370a0823160e01b81523060048201529192506001600160a01b0316906370a0823190602401602060405180830381865afa1580156106b6573d6000803e3d6000fd5b505050506040513d601f19601f820116820180604052508101906106da9190610e33565b811115610771576002546040516370a0823160e01b81523060048201526001600160a01b03909116906370a0823190602401602060405180830381865afa158015610729573d6000803e3d6000fd5b505050506040513d601f19601f8201168201806040525081019061074d9190610e33565b604051634787a10360e11b815260048101919091526024810182905260440161026c565b60025460015460405163095ea7b360e01b81526001600160a01b0391821660048201526024810184905291169063095ea7b3906044016020604051808303816000875af11580156107c6573d6000803e3d6000fd5b505050506040513d601f19601f820116820180604052508101906107ea9190610f76565b5060015460405163095ea7b360e01b81526001600160a01b039182166004820152602481018890529088169063095ea7b3906044016020604051808303816000875af115801561083e573d6000803e3d6000fd5b505050506040513d601f19601f820116820180604052508101906108629190610f76565b506001546040516396f4e9f960e01b81526001600160a01b03909116906396f4e9f990610895908c908690600401610e9c565b6020604051808303816000875af11580156108b4573d6000803e3d6000fd5b505050506040513d601f19601f820116820180604052508101906108d89190610e33565b600254604080516001600160a01b03808d168252808c1660208301529181018a9052911660608201526080810183905290955067ffffffffffffffff8a169086907fc15fb748c32ba4eb29c1c311e78533f93b4425eab49ea87c6fe4279ecadca0439060a0016104a3565b604080516001600160a01b038416602482015260448082018490528251808303909101815260649091019091526020810180516001600160e01b031663a9059cbb60e01b179052610223908490610b07565b6109d06040518060a0016040528060608152602001606081526020016060815260200160006001600160a01b03168152602001606081525090565b604080516001808252818301909252600091816020015b60408051808201909152600080825260208201528152602001906001900390816109e75790505090506040518060400160405280866001600160a01b031681526020018581525081600081518110610a4157610a41610f93565b60209081029190910101526040805160a081019091526001600160a01b03871660c08201528060e081016040516020818303038152906040528152602001604051806020016040528060008152508152602001828152602001846001600160a01b03168152602001610af96040518060200160405280600081525060408051915160248084019190915281518084039091018152604490920190526020810180516001600160e01b03166397a657c960e01b17905290565b90529150505b949350505050565b6000610b5c826040518060400160405280602081526020017f5361666545524332303a206c6f772d6c6576656c2063616c6c206661696c6564815250856001600160a01b0316610bd99092919063ffffffff16565b8051909150156102235780806020019051810190610b7a9190610f76565b6102235760405162461bcd60e51b815260206004820152602a60248201527f5361666545524332303a204552433230206f7065726174696f6e20646964206e6044820152691bdd081cdd58d8d9595960b21b606482015260840161026c565b6060610aff848460008585600080866001600160a01b03168587604051610c009190610fa9565b60006040518083038185875af1925050503d8060008114610c3d576040519150601f19603f3d011682016040523d82523d6000602084013e610c42565b606091505b5091509150610c5387838387610c5e565b979650505050505050565b60608315610ccd578251600003610cc6576001600160a01b0385163b610cc65760405162461bcd60e51b815260206004820152601d60248201527f416464726573733a2063616c6c20746f206e6f6e2d636f6e7472616374000000604482015260640161026c565b5081610aff565b610aff8383815115610ce25781518083602001fd5b8060405162461bcd60e51b815260040161026c9190610fc5565b803567ffffffffffffffff81168114610d1457600080fd5b919050565b600060208284031215610d2b57600080fd5b610d3482610cfc565b9392505050565b80356001600160a01b0381168114610d1457600080fd5b60008060408385031215610d6557600080fd5b610d6e83610d3b565b9150610d7c60208401610d3b565b90509250929050565b60008060008060808587031215610d9b57600080fd5b610da485610cfc565b9350610db260208601610d3b565b9250610dc060408601610d3b565b9396929550929360600135925050565b600060208284031215610de257600080fd5b610d3482610d3b565b8015158114610df957600080fd5b50565b60008060408385031215610e0f57600080fd5b610e1883610cfc565b91506020830135610e2881610deb565b809150509250929050565b600060208284031215610e4557600080fd5b5051919050565b60005b83811015610e67578181015183820152602001610e4f565b50506000910152565b60008151808452610e88816020860160208601610e4c565b601f01601f19169290920160200192915050565b6000604067ffffffffffffffff8516835260208181850152845160a083860152610ec960e0860182610e70565b905081860151603f1980878403016060880152610ee68383610e70565b88860151888203830160808a01528051808352908601945060009350908501905b80841015610f3957845180516001600160a01b0316835286015186830152938501936001939093019290860190610f07565b5060608901516001600160a01b031660a08901526080890151888203830160c08a01529550610f688187610e70565b9a9950505050505050505050565b600060208284031215610f8857600080fd5b8151610d3481610deb565b634e487b7160e01b600052603260045260246000fd5b60008251610fbb818460208701610e4c565b9190910192915050565b602081526000610d346020830184610e7056fea2646970667358221220d13e82f83c05c793d0057a01680f3abf06c5426d16543ca4b4665eb1ef0df79264736f6c63430008140033",
  "devdoc": {
    "kind": "dev",
    "methods": {
      "allowlistDestinationChain(uint64,bool)": {
        "details": "Updates the allowlist status of a destination chain for transactions.",
        "params": {
          "_destinationChainSelector": "The selector of the destination chain to be updated.",
          "allowed": "The allowlist status to be set for the destination chain."
        }
      },
      "constructor": {
        "params": {
          "_link": "The address of the link contract.",
          "_router": "The address of the router contract."
        }
      },
      "transferTokensPayLINK(uint64,address,address,uint256)": {
        "details": "Assumes your contract has sufficient LINK tokens to pay for the fees.",
        "params": {
          "_amount": "token amount.",
          "_destinationChainSelector": "The identifier (aka selector) for the destination blockchain.",
          "_receiver": "The address of the recipient on the destination blockchain.",
          "_token": "token address."
        },
        "returns": {
          "messageId": "The ID of the message that was sent."
        }
      },
      "transferTokensPayNative(uint64,address,address,uint256)": {
        "details": "Assumes your contract has sufficient native gas like ETH on Ethereum or MATIC on Polygon.",
        "params": {
          "_amount": "token amount.",
          "_destinationChainSelector": "The identifier (aka selector) for the destination blockchain.",
          "_receiver": "The address of the recipient on the destination blockchain.",
          "_token": "token address."
        },
        "returns": {
          "messageId": "The ID of the message that was sent."
        }
      },
      "withdraw(address)": {
        "details": "This function reverts if there are no funds to withdraw or if the transfer fails. It should only be callable by the owner of the contract.",
        "params": {
          "_beneficiary": "The address to which the Ether should be transferred."
        }
      },
      "withdrawToken(address,address)": {
        "details": "This function reverts with a 'NothingToWithdraw' error if there are no tokens to withdraw.",
        "params": {
          "_beneficiary": "The address to which the tokens will be sent.",
          "_token": "The contract address of the ERC20 token to be withdrawn."
        }
      }
    },
    "title": "- A simple contract for transferring tokens across chains.",
    "version": 1
  },
  "userdoc": {
    "kind": "user",
    "methods": {
      "allowlistDestinationChain(uint64,bool)": {
        "notice": "This function can only be called by the owner."
      },
      "constructor": {
        "notice": "Constructor initializes the contract with the router address."
      },
      "transferTokensPayLINK(uint64,address,address,uint256)": {
        "notice": "Transfer tokens to receiver on the destination chain.pay in LINK.the token must be in the list of supported tokens.This function can only be called by the owner."
      },
      "transferTokensPayNative(uint64,address,address,uint256)": {
        "notice": "Transfer tokens to receiver on the destination chain.Pay in native gas such as ETH on Ethereum or MATIC on Polgon.the token must be in the list of supported tokens.This function can only be called by the owner."
      },
      "withdraw(address)": {
        "notice": "Allows the contract owner to withdraw the entire balance of Ether from the contract."
      },
      "withdrawToken(address,address)": {
        "notice": "Allows the owner of the contract to withdraw all tokens of a specific ERC20 token."
      }
    },
    "version": 1
  },
  "storageLayout": {
    "storage": [
      {
        "astId": 3438,
        "contract": "contracts/Trade.sol:Trade",
        "label": "allowlistedChains",
        "offset": 0,
        "slot": "0",
        "type": "t_mapping(t_uint64,t_bool)"
      },
      {
        "astId": 3441,
        "contract": "contracts/Trade.sol:Trade",
        "label": "s_router",
        "offset": 0,
        "slot": "1",
        "type": "t_contract(IRouterClient)51"
      },
      {
        "astId": 3444,
        "contract": "contracts/Trade.sol:Trade",
        "label": "s_linkToken",
        "offset": 0,
        "slot": "2",
        "type": "t_contract(IERC20)301"
      }
    ],
    "types": {
      "t_bool": {
        "encoding": "inplace",
        "label": "bool",
        "numberOfBytes": "1"
      },
      "t_contract(IERC20)301": {
        "encoding": "inplace",
        "label": "contract IERC20",
        "numberOfBytes": "20"
      },
      "t_contract(IRouterClient)51": {
        "encoding": "inplace",
        "label": "contract IRouterClient",
        "numberOfBytes": "20"
      },
      "t_mapping(t_uint64,t_bool)": {
        "encoding": "mapping",
        "key": "t_uint64",
        "label": "mapping(uint64 => bool)",
        "numberOfBytes": "32",
        "value": "t_bool"
      },
      "t_uint64": {
        "encoding": "inplace",
        "label": "uint64",
        "numberOfBytes": "8"
      }
    }
  }
}